{
  "contractName": "DarkForestCore",
  "abi": [
    {
      "inputs": [
        {
          "internalType": "contract IVerifier",
          "name": "_verifier",
          "type": "address"
        }
      ],
      "stateMutability": "nonpayable",
      "type": "constructor"
    },
    {
      "anonymous": false,
      "inputs": [
        {
          "indexed": false,
          "internalType": "uint256",
          "name": "loc",
          "type": "uint256"
        },
        {
          "indexed": false,
          "internalType": "uint256",
          "name": "resources",
          "type": "uint256"
        }
      ],
      "name": "PlanetInitialized",
      "type": "event"
    },
    {
      "anonymous": false,
      "inputs": [
        {
          "indexed": false,
          "internalType": "address",
          "name": "player",
          "type": "address"
        },
        {
          "indexed": false,
          "internalType": "uint256",
          "name": "loc",
          "type": "uint256"
        }
      ],
      "name": "PlayerInitialized",
      "type": "event"
    },
    {
      "inputs": [],
      "name": "owner",
      "outputs": [
        {
          "internalType": "address",
          "name": "",
          "type": "address"
        }
      ],
      "stateMutability": "view",
      "type": "function",
      "constant": true
    },
    {
      "inputs": [],
      "name": "verifier",
      "outputs": [
        {
          "internalType": "contract IVerifier",
          "name": "",
          "type": "address"
        }
      ],
      "stateMutability": "view",
      "type": "function",
      "constant": true
    },
    {
      "inputs": [
        {
          "internalType": "uint256[2]",
          "name": "_a",
          "type": "uint256[2]"
        },
        {
          "internalType": "uint256[2][2]",
          "name": "_b",
          "type": "uint256[2][2]"
        },
        {
          "internalType": "uint256[2]",
          "name": "_c",
          "type": "uint256[2]"
        },
        {
          "internalType": "uint256[3]",
          "name": "_input",
          "type": "uint256[3]"
        }
      ],
      "name": "initializePlayer",
      "outputs": [],
      "stateMutability": "nonpayable",
      "type": "function"
    },
    {
      "inputs": [
        {
          "internalType": "uint256[4]",
          "name": "_input",
          "type": "uint256[4]"
        }
      ],
      "name": "initializePlanet",
      "outputs": [],
      "stateMutability": "nonpayable",
      "type": "function"
    },
    {
      "inputs": [
        {
          "internalType": "uint256[2]",
          "name": "_a",
          "type": "uint256[2]"
        },
        {
          "internalType": "uint256[2][2]",
          "name": "_b",
          "type": "uint256[2][2]"
        },
        {
          "internalType": "uint256[2]",
          "name": "_c",
          "type": "uint256[2]"
        },
        {
          "internalType": "uint256[4]",
          "name": "_input",
          "type": "uint256[4]"
        }
      ],
      "name": "move",
      "outputs": [],
      "stateMutability": "nonpayable",
      "type": "function"
    },
    {
      "inputs": [
        {
          "internalType": "uint256",
          "name": "amount",
          "type": "uint256"
        }
      ],
      "name": "mineResources",
      "outputs": [],
      "stateMutability": "nonpayable",
      "type": "function"
    },
    {
      "inputs": [],
      "name": "GetPlayerCount",
      "outputs": [
        {
          "internalType": "uint256",
          "name": "",
          "type": "uint256"
        }
      ],
      "stateMutability": "view",
      "type": "function",
      "constant": true
    },
    {
      "inputs": [],
      "name": "GetAllPlayers",
      "outputs": [
        {
          "internalType": "uint256[]",
          "name": "",
          "type": "uint256[]"
        }
      ],
      "stateMutability": "view",
      "type": "function",
      "constant": true
    },
    {
      "inputs": [],
      "name": "GetPlayer",
      "outputs": [
        {
          "internalType": "uint256",
          "name": "location",
          "type": "uint256"
        },
        {
          "internalType": "uint256",
          "name": "initExpiry",
          "type": "uint256"
        },
        {
          "internalType": "uint256",
          "name": "pendingResources",
          "type": "uint256"
        },
        {
          "internalType": "uint256",
          "name": "resources",
          "type": "uint256"
        }
      ],
      "stateMutability": "view",
      "type": "function",
      "constant": true
    },
    {
      "inputs": [
        {
          "internalType": "uint256",
          "name": "_index",
          "type": "uint256"
        }
      ],
      "name": "GetPlanet",
      "outputs": [
        {
          "internalType": "uint256",
          "name": "resources",
          "type": "uint256"
        }
      ],
      "stateMutability": "view",
      "type": "function",
      "constant": true
    }
  ],
  "bytecode": "0x60a06040523480156200001157600080fd5b506040516200218138038062002181833981810160405281019062000037919062000130565b8073ffffffffffffffffffffffffffffffffffffffff1660808173ffffffffffffffffffffffffffffffffffffffff1681525050336000806101000a81548173ffffffffffffffffffffffffffffffffffffffff021916908373ffffffffffffffffffffffffffffffffffffffff1602179055505062000162565b600080fd5b600073ffffffffffffffffffffffffffffffffffffffff82169050919050565b6000620000e482620000b7565b9050919050565b6000620000f882620000d7565b9050919050565b6200010a81620000eb565b81146200011657600080fd5b50565b6000815190506200012a81620000ff565b92915050565b600060208284031215620001495762000148620000b2565b5b6000620001598482850162000119565b91505092915050565b608051611ff56200018c600039600081816101de0152818161058501526109780152611ff56000f3fe608060405234801561001057600080fd5b506004361061009e5760003560e01c806366c0fb881161006657806366c0fb881461014957806378d4ce95146101655780637ee11357146101815780638da5cb5b1461019d578063dc4b5b3b146101bb5761009e565b80632b7ac3f3146100a357806334713e4e146100c157806338dfa19e146100df5780634c40e573146100fd5780635a23730a1461012d575b600080fd5b6100ab6101dc565b6040516100b89190611089565b60405180910390f35b6100c9610200565b6040516100d6919061116c565b60405180910390f35b6100e76102ca565b6040516100f4919061119d565b60405180910390f35b610117600480360381019061011291906111f3565b6102d7565b604051610124919061119d565b60405180910390f35b610147600480360381019061014291906111f3565b6102fc565b005b610163600480360381019061015e9190611367565b6104af565b005b61017f600480360381019061017a91906115a7565b610583565b005b61019b60048036038101906101969190611610565b610976565b005b6101a5610f52565b6040516101b2919061169a565b60405180910390f35b6101c3610f76565b6040516101d394939291906116b5565b60405180910390f35b7f000000000000000000000000000000000000000000000000000000000000000081565b6060600060028054905067ffffffffffffffff81111561022357610222611236565b5b6040519080825280602002602001820160405280156102515781602001602082028036833780820191505090505b50905060005b6002805490508110156102c25760006002828154811061027a576102796116fa565b5b9060005260206000209060070201905080600101548383815181106102a2576102a16116fa565b5b6020026020010181815250505080806102ba90611758565b915050610257565b508091505090565b6000600280549050905090565b600080600c600084815260200190815260200160002090508060010154915050919050565b6000600d60003373ffffffffffffffffffffffffffffffffffffffff1673ffffffffffffffffffffffffffffffffffffffff168152602001908152602001600020549050600060028281548110610356576103556116fa565b5b9060005260206000209060070201600101549050600060048261037991906117d0565b90506000600c600083815260200190815260200160002060405180604001604052908160008201548152602001600182015481525050905060008160000151116103f8576040517f08c379a00000000000000000000000000000000000000000000000000000000081526004016103ef9061185e565b60405180910390fd5b806020015185111561043f576040517f08c379a0000000000000000000000000000000000000000000000000000000008152600401610436906118f0565b60405180910390fd5b84600c600084815260200190815260200160002060010160008282546104659190611910565b925050819055508460028581548110610481576104806116fa565b5b906000526020600020906007020160050160008282546104a19190611944565b925050819055505050505050565b6000600190505b600481101561057f5760008282600481106104d4576104d36116fa565b5b60200201519050600082600a6104ea919061199a565b90506000604051806040016040528084815260200183815250905080600c600085815260200190815260200160002060008201518160000155602082015181600101559050507fc555ec268374e2c67b7c485f48e22dd3e69b2bc7edb990b39d17110a3e327a0483836040516105619291906119f4565b60405180910390a1505050808061057790611758565b9150506104b6565b5050565b7f000000000000000000000000000000000000000000000000000000000000000073ffffffffffffffffffffffffffffffffffffffff16638eff8954858585856040518563ffffffff1660e01b81526004016105e29493929190611c23565b6020604051808303816000875af1158015610601573d6000803e3d6000fd5b505050506040513d601f19601f820116820180604052508101906106259190611ca2565b610664576040517f08c379a000000000000000000000000000000000000000000000000000000000815260040161065b90611d1b565b60405180910390fd5b60008160006003811061067a576106796116fa565b5b602002015190507f5765df5ce7cf4175ef997923b4936159dcf3cea059434dab4643214d690a2b9533826040516106b2929190611d3b565b60405180910390a16000600a60008381526020019081526020016000206001015414610713576040517f08c379a000000000000000000000000000000000000000000000000000000000815260040161070a90611db0565b60405180910390fd5b600061012c426107239190611944565b905060006040518060e001604052803373ffffffffffffffffffffffffffffffffffffffff168152602001848152602001838152602001600081526020016001151581526020016000815260200160008152509050600281908060018154018082558091505060019003906000526020600020906007020160009091909190915060008201518160000160006101000a81548173ffffffffffffffffffffffffffffffffffffffff021916908373ffffffffffffffffffffffffffffffffffffffff16021790555060208201518160010155604082015181600201556060820151816003015560808201518160040160006101000a81548160ff02191690831515021790555060a0820151816005015560c08201518160060155505080600a600085815260200190815260200160002060008201518160000160006101000a81548173ffffffffffffffffffffffffffffffffffffffff021916908373ffffffffffffffffffffffffffffffffffffffff16021790555060208201518160010155604082015181600201556060820151816003015560808201518160040160006101000a81548160ff02191690831515021790555060a0820151816005015560c0820151816006015590505060016002805490506109019190611910565b600b600085815260200190815260200160002081905550600160028054905061092a9190611910565b600d60003373ffffffffffffffffffffffffffffffffffffffff1673ffffffffffffffffffffffffffffffffffffffff1681526020019081526020016000208190555050505050505050565b7f000000000000000000000000000000000000000000000000000000000000000073ffffffffffffffffffffffffffffffffffffffff16636996ee66858585856040518563ffffffff1660e01b81526004016109d59493929190611e54565b6020604051808303816000875af11580156109f4573d6000803e3d6000fd5b505050506040513d601f19601f82011682018060405250810190610a189190611ca2565b610a57576040517f08c379a0000000000000000000000000000000000000000000000000000000008152600401610a4e90611d1b565b60405180910390fd5b600081600060048110610a6d57610a6c6116fa565b5b60200201519050600082600160048110610a8a57610a896116fa565b5b602002015190506000600d60003373ffffffffffffffffffffffffffffffffffffffff1673ffffffffffffffffffffffffffffffffffffffff168152602001908152602001600020549050600060028281548110610aeb57610aea6116fa565b5b90600052602060002090600702016001015490506000600b6000858152602001908152602001600020549050848214610b59576040517f08c379a0000000000000000000000000000000000000000000000000000000008152600401610b5090611f0d565b60405180910390fd5b4260028481548110610b6e57610b6d6116fa565b5b9060005260206000209060070201600301541115610bc1576040517f08c379a0000000000000000000000000000000000000000000000000000000008152600401610bb890611f9f565b60405180910390fd5b601e42610bce9190611944565b60028481548110610be257610be16116fa565b5b906000526020600020906007020160030181905550838514610d055760028381548110610c1257610c116116fa565b5b90600052602060002090600702016005015460028481548110610c3857610c376116fa565b5b90600052602060002090600702016006016000828254610c589190611944565b92505081905550600060028481548110610c7557610c746116fa565b5b90600052602060002090600702016005018190555060028181548110610c9e57610c9d6116fa565b5b90600052602060002090600702016005015460028481548110610cc457610cc36116fa565b5b906000526020600020906007020160050181905550600060028281548110610cef57610cee6116fa565b5b9060005260206000209060070201600501819055505b6b204fce5e3e2502610fffffff600b60008781526020019081526020016000208190555082600b6000868152602001908152602001600020819055506003600a60008781526020019081526020016000206000820160009054906101000a900473ffffffffffffffffffffffffffffffffffffffff168160000160006101000a81548173ffffffffffffffffffffffffffffffffffffffff021916908373ffffffffffffffffffffffffffffffffffffffff1602179055506001820154816001015560028201548160020155600382015481600301556004820160009054906101000a900460ff168160040160006101000a81548160ff021916908315150217905550600582015481600501556006820154816006015590505060028381548110610e3357610e326116fa565b5b9060005260206000209060070201600a60008681526020019081526020016000206000820160009054906101000a900473ffffffffffffffffffffffffffffffffffffffff168160000160006101000a81548173ffffffffffffffffffffffffffffffffffffffff021916908373ffffffffffffffffffffffffffffffffffffffff1602179055506001820154816001015560028201548160020155600382015481600301556004820160009054906101000a900460ff168160040160006101000a81548160ff02191690831515021790555060058201548160050155600682015481600601559050508360028481548110610f3257610f316116fa565b5b906000526020600020906007020160010181905550505050505050505050565b60008054906101000a900473ffffffffffffffffffffffffffffffffffffffff1681565b6000806000806000600d60003373ffffffffffffffffffffffffffffffffffffffff1673ffffffffffffffffffffffffffffffffffffffff168152602001908152602001600020549050600060028281548110610fd657610fd56116fa565b5b9060005260206000209060070201905080600101548160020154826005015483600601549550955095509550505090919293565b600073ffffffffffffffffffffffffffffffffffffffff82169050919050565b6000819050919050565b600061104f61104a6110458461100a565b61102a565b61100a565b9050919050565b600061106182611034565b9050919050565b600061107382611056565b9050919050565b61108381611068565b82525050565b600060208201905061109e600083018461107a565b92915050565b600081519050919050565b600082825260208201905092915050565b6000819050602082019050919050565b6000819050919050565b6110e3816110d0565b82525050565b60006110f583836110da565b60208301905092915050565b6000602082019050919050565b6000611119826110a4565b61112381856110af565b935061112e836110c0565b8060005b8381101561115f57815161114688826110e9565b975061115183611101565b925050600181019050611132565b5085935050505092915050565b60006020820190508181036000830152611186818461110e565b905092915050565b611197816110d0565b82525050565b60006020820190506111b2600083018461118e565b92915050565b6000604051905090565b600080fd5b6111d0816110d0565b81146111db57600080fd5b50565b6000813590506111ed816111c7565b92915050565b600060208284031215611209576112086111c2565b5b6000611217848285016111de565b91505092915050565b600080fd5b6000601f19601f8301169050919050565b7f4e487b7100000000000000000000000000000000000000000000000000000000600052604160045260246000fd5b61126e82611225565b810181811067ffffffffffffffff8211171561128d5761128c611236565b5b80604052505050565b60006112a06111b8565b90506112ac8282611265565b919050565b600067ffffffffffffffff8211156112cc576112cb611236565b5b602082029050919050565b600080fd5b60006112ef6112ea846112b1565b611296565b90508060208402830185811115611309576113086112d7565b5b835b81811015611332578061131e88826111de565b84526020840193505060208101905061130b565b5050509392505050565b600082601f83011261135157611350611220565b5b600461135e8482856112dc565b91505092915050565b60006080828403121561137d5761137c6111c2565b5b600061138b8482850161133c565b91505092915050565b600067ffffffffffffffff8211156113af576113ae611236565b5b602082029050919050565b60006113cd6113c884611394565b611296565b905080602084028301858111156113e7576113e66112d7565b5b835b8181101561141057806113fc88826111de565b8452602084019350506020810190506113e9565b5050509392505050565b600082601f83011261142f5761142e611220565b5b600261143c8482856113ba565b91505092915050565b600067ffffffffffffffff8211156114605761145f611236565b5b602082029050919050565b600061147e61147984611445565b611296565b90508060408402830185811115611498576114976112d7565b5b835b818110156114c157806114ad888261141a565b84526020840193505060408101905061149a565b5050509392505050565b600082601f8301126114e0576114df611220565b5b60026114ed84828561146b565b91505092915050565b600067ffffffffffffffff82111561151157611510611236565b5b602082029050919050565b600061152f61152a846114f6565b611296565b90508060208402830185811115611549576115486112d7565b5b835b81811015611572578061155e88826111de565b84526020840193505060208101905061154b565b5050509392505050565b600082601f83011261159157611590611220565b5b600361159e84828561151c565b91505092915050565b60008060008061016085870312156115c2576115c16111c2565b5b60006115d08782880161141a565b94505060406115e1878288016114cb565b93505060c06115f28782880161141a565b9250506101006116048782880161157c565b91505092959194509250565b600080600080610180858703121561162b5761162a6111c2565b5b60006116398782880161141a565b945050604061164a878288016114cb565b93505060c061165b8782880161141a565b92505061010061166d8782880161133c565b91505092959194509250565b60006116848261100a565b9050919050565b61169481611679565b82525050565b60006020820190506116af600083018461168b565b92915050565b60006080820190506116ca600083018761118e565b6116d7602083018661118e565b6116e4604083018561118e565b6116f1606083018461118e565b95945050505050565b7f4e487b7100000000000000000000000000000000000000000000000000000000600052603260045260246000fd5b7f4e487b7100000000000000000000000000000000000000000000000000000000600052601160045260246000fd5b6000611763826110d0565b91507fffffffffffffffffffffffffffffffffffffffffffffffffffffffffffffffff82141561179657611795611729565b5b600182019050919050565b7f4e487b7100000000000000000000000000000000000000000000000000000000600052601260045260246000fd5b60006117db826110d0565b91506117e6836110d0565b9250826117f6576117f56117a1565b5b828206905092915050565b600082825260208201905092915050565b7f54686973206c6f636174696f6e206973206e6f74206120706c616e6574000000600082015250565b6000611848601d83611801565b915061185382611812565b602082019050919050565b600060208201905081810360008301526118778161183b565b9050919050565b7f5468697320706c616e657420646f6573206e6f74206861766520757020746f2060008201527f74686520726571756573746564207265736f7572636573000000000000000000602082015250565b60006118da603783611801565b91506118e58261187e565b604082019050919050565b60006020820190508181036000830152611909816118cd565b9050919050565b600061191b826110d0565b9150611926836110d0565b92508282101561193957611938611729565b5b828203905092915050565b600061194f826110d0565b915061195a836110d0565b9250827fffffffffffffffffffffffffffffffffffffffffffffffffffffffffffffffff0382111561198f5761198e611729565b5b828201905092915050565b60006119a5826110d0565b91506119b0836110d0565b9250817fffffffffffffffffffffffffffffffffffffffffffffffffffffffffffffffff04831182151516156119e9576119e8611729565b5b828202905092915050565b6000604082019050611a09600083018561118e565b611a16602083018461118e565b9392505050565b600060029050919050565b600081905092915050565b6000819050919050565b6000602082019050919050565b611a5381611a1d565b611a5d8184611a28565b9250611a6882611a33565b8060005b83811015611a99578151611a8087826110e9565b9650611a8b83611a3d565b925050600181019050611a6c565b505050505050565b600060029050919050565b600081905092915050565b6000819050919050565b600081905092915050565b611ad581611a1d565b611adf8184611ac1565b9250611aea82611a33565b8060005b83811015611b1b578151611b0287826110e9565b9650611b0d83611a3d565b925050600181019050611aee565b505050505050565b6000611b2f8383611acc565b60408301905092915050565b6000602082019050919050565b611b5181611aa1565b611b5b8184611aac565b9250611b6682611ab7565b8060005b83811015611b97578151611b7e8782611b23565b9650611b8983611b3b565b925050600181019050611b6a565b505050505050565b600060039050919050565b600081905092915050565b6000819050919050565b6000602082019050919050565b611bd581611b9f565b611bdf8184611baa565b9250611bea82611bb5565b8060005b83811015611c1b578151611c0287826110e9565b9650611c0d83611bbf565b925050600181019050611bee565b505050505050565b600061016082019050611c396000830187611a4a565b611c466040830186611b48565b611c5360c0830185611a4a565b611c61610100830184611bcc565b95945050505050565b60008115159050919050565b611c7f81611c6a565b8114611c8a57600080fd5b50565b600081519050611c9c81611c76565b92915050565b600060208284031215611cb857611cb76111c2565b5b6000611cc684828501611c8d565b91505092915050565b7f4661696c656420696e69742070726f6f6620636865636b000000000000000000600082015250565b6000611d05601783611801565b9150611d1082611ccf565b602082019050919050565b60006020820190508181036000830152611d3481611cf8565b9050919050565b6000604082019050611d50600083018561168b565b611d5d602083018461118e565b9392505050565b7f4120706c6179657220657869737420696e2074686973206c6f636174696f6e00600082015250565b6000611d9a601f83611801565b9150611da582611d64565b602082019050919050565b60006020820190508181036000830152611dc981611d8d565b9050919050565b600060049050919050565b600081905092915050565b6000819050919050565b6000602082019050919050565b611e0681611dd0565b611e108184611ddb565b9250611e1b82611de6565b8060005b83811015611e4c578151611e3387826110e9565b9650611e3e83611df0565b925050600181019050611e1f565b505050505050565b600061018082019050611e6a6000830187611a4a565b611e776040830186611b48565b611e8460c0830185611a4a565b611e92610100830184611dfd565b95945050505050565b7f506c6179657220646f6573206e6f742065786973742061742063757272656e7460008201527f206c6f636174696f6e0000000000000000000000000000000000000000000000602082015250565b6000611ef7602983611801565b9150611f0282611e9b565b604082019050919050565b60006020820190508181036000830152611f2681611eea565b9050919050565b7f506c617965722068617320746f2077616974203330207365636f6e647320626560008201527f666f7265206d6f76696e6720746f2061206e6577206c6f636174696f6e000000602082015250565b6000611f89603d83611801565b9150611f9482611f2d565b604082019050919050565b60006020820190508181036000830152611fb881611f7c565b905091905056fea264697066735822122015ecc7f0d55d438b019f0f7dce196906c1c465e838f1f27ac121a79844646edc64736f6c634300080b0033",
  "immutableReferences": {
    "51": [
      {
        "length": 32,
        "start": 478
      },
      {
        "length": 32,
        "start": 1413
      },
      {
        "length": 32,
        "start": 2424
      }
    ]
  },
  "source": "// SPDX-License-Identifier: UNLICENSED\npragma solidity 0.8.11;\n\ninterface IVerifier {\n    function verifyInitProof(\n        uint256[2] memory a,\n        uint256[2][2] memory b,\n        uint256[2] memory c,\n        uint256[3] memory input\n    ) external returns (bool);\n\n    function verifyMoveProof(\n        uint256[2] memory a,\n        uint256[2][2] memory b,\n        uint256[2] memory c,\n        uint256[4] memory input\n    ) external returns (bool);\n}\n\ncontract DarkForestCore {\n    IVerifier public immutable verifier;\n    // A struct of the player to hold the current location hash and an expiry timestamp of 5mins\n    struct Player {\n        address user;\n        uint256 location;\n        uint256 initExpiry;\n        uint256 moveExpiry;\n        bool exists;\n        uint256 pendingResources;\n        uint256 resources;\n    }\n    struct Planet {\n        uint256 index;\n        uint256 resources;\n    }\n    \n    address public owner;\n    uint256 index;\n    Player[] players;\n    Player defaultPlayer;\n\n    // We will map the location hash to the player struct in order to validate whether a particular location already has a player in it\n    mapping (uint256 => Player) locationTaken;\n    mapping (uint256 => uint256) locationIndex;\n    mapping (uint256 => Planet) isPlanet;\n    // mapping the player's address to his index in the player's array\n    mapping (address => uint256) playerPosition;\n\n    event PlayerInitialized(address player, uint256 loc);\n    event PlanetInitialized(uint256 loc, uint256 resources);\n\n    constructor(\n        IVerifier _verifier\n    ) {\n        verifier = _verifier;\n        owner = msg.sender;\n    }\n\n    modifier onlyAdmin() {\n        require(msg.sender == owner, \"Sender is not a game master\");\n        _;\n    }\n\n    function initializePlayer(\n        uint256[2] memory _a,\n        uint256[2][2] memory _b,\n        uint256[2] memory _c,\n        uint256[3] memory _input\n    ) public {\n        require(\n            verifier.verifyInitProof(_a, _b, _c, _input),\n            \"Failed init proof check\"\n        );\n\n        uint256 _location = _input[0];\n\n        emit PlayerInitialized(msg.sender, _location);\n        // This assertion will confirm if the location is already taken by an existing player\n        require(\n            locationTaken[_location].location == 0,\n            \"A player exist in this location\"\n        );\n        // This assertion will use the expiry timestamp to confirm if a player was in this location in the last five minutes however once the first assertion passes this one can't fail unless the players can move from their present location\n        // require(\n        //     locationTaken[_location].expiry <= block.timestamp,\n        //     \"A player is currently in this location\"\n        // );\n\n        uint256 expiry = block.timestamp + 300;\n        Player memory player = Player(msg.sender, _location, expiry, 0, true, 0, 0);\n        players.push(player);\n        locationTaken[_location] = player;\n        locationIndex[_location] = players.length - 1;\n        playerPosition[msg.sender] = players.length - 1;\n    }\n\n    function initializePlanet(\n        uint256[4] memory _input\n    ) public {\n        for (uint256 i = 1; i < _input.length; i++) {\n            uint256 planetIndex = _input[i];\n            uint256 planetResources = 10*(i);\n\n            Planet memory planet = Planet(planetIndex, planetResources);\n            isPlanet[planetIndex] = planet;\n\n            emit PlanetInitialized(planetIndex, planetResources);\n        }\n    }\n\n    function move(\n        uint256[2] memory _a,\n        uint256[2][2] memory _b,\n        uint256[2] memory _c,\n        uint256[4] memory _input\n    ) public {\n        require(\n            verifier.verifyMoveProof(_a, _b, _c, _input),\n            \"Failed init proof check\"\n        );\n        uint256 presentLocation = _input[0];\n        uint256 newLocation = _input[1];\n        uint256 playerIndex = playerPosition[msg.sender];\n        uint256 existingLocation = players[playerIndex].location;\n        uint256 activePlayerIndex = locationIndex[newLocation];\n\n        require(\n            existingLocation == presentLocation,\n            \"Player does not exist at current location\"\n        );\n        require(\n            players[playerIndex].moveExpiry <= block.timestamp,\n            \"Player has to wait 30 seconds before moving to a new location\"\n        );\n        players[playerIndex].moveExpiry = block.timestamp + 30;\n        if (presentLocation != newLocation) {\n            players[playerIndex].resources += players[playerIndex].pendingResources;\n            players[playerIndex].pendingResources = 0;\n            players[playerIndex].pendingResources = players[activePlayerIndex].pendingResources;\n            players[activePlayerIndex].pendingResources = 0;\n        }\n        locationIndex[presentLocation] = 9999999999999999999999999999;\n        locationIndex[newLocation] = playerIndex;\n        locationTaken[presentLocation] = defaultPlayer;\n        locationTaken[newLocation] = players[playerIndex];\n        players[playerIndex].location = newLocation;\n    }\n\n    function mineResources(uint256 amount) public {\n        uint256 playerIndex = playerPosition[msg.sender];\n        uint256 existingLocation = players[playerIndex].location;\n        uint256 isPlanetIndex = existingLocation % 4;\n\n        Planet memory currentPlanet = isPlanet[isPlanetIndex];\n\n        require(\n            currentPlanet.index > 0,\n            \"This location is not a planet\"\n        );\n        require(\n            amount <= currentPlanet.resources,\n            \"This planet does not have up to the requested resources\"\n        );\n        isPlanet[isPlanetIndex].resources -= amount;\n        players[playerIndex].pendingResources += amount;\n    }\n\n    function GetPlayerCount() view public returns (uint) {\n        return players.length;\n    }\n\n    function GetAllPlayers() view public returns (uint256[] memory) {\n        uint256[] memory location = new uint256[](players.length);\n\n        for (uint i = 0; i < players.length; i++) {\n            Player storage player = players[i];\n\n            location[i] = player.location;\n        }\n\n        return (location);\n    }\n\n    function GetPlayer() view public returns (\n        uint256 location, \n        uint256 initExpiry, \n        uint256 pendingResources, \n        uint256 resources) {\n        uint256 playerIndex = playerPosition[msg.sender];\n        Player storage player = players[playerIndex];\n\n        return (player.location, player.initExpiry, player.pendingResources, player.resources);\n    }\n\n    function GetPlanet(uint256 _index) view public returns (uint256 resources) {\n        Planet storage planet = isPlanet[_index];\n\n        return (planet.resources);\n    }\n}\n",
  "sourcePath": "/Users/tosinshada/Documents/ZKU/Assignment1/zku-darkforest/eth/contracts/DarkForestCore.sol",
  "compiler": {
    "name": "solc",
    "version": "0.8.11+commit.d7f03943.Emscripten.clang"
  },
  "schemaVersion": "3.4.4",
  "updatedAt": "2022-01-12T21:50:45.732Z",
  "networkType": "ethereum",
  "devdoc": {
    "kind": "dev",
    "methods": {},
    "version": 1
  },
  "userdoc": {
    "kind": "user",
    "methods": {},
    "version": 1
  }
}