{
  "contractName": "Verifier",
  "abi": [
    {
      "inputs": [
        {
          "internalType": "uint256[2]",
          "name": "a",
          "type": "uint256[2]"
        },
        {
          "internalType": "uint256[2][2]",
          "name": "b",
          "type": "uint256[2][2]"
        },
        {
          "internalType": "uint256[2]",
          "name": "c",
          "type": "uint256[2]"
        },
        {
          "internalType": "uint256[]",
          "name": "input",
          "type": "uint256[]"
        },
        {
          "components": [
            {
              "components": [
                {
                  "internalType": "uint256",
                  "name": "X",
                  "type": "uint256"
                },
                {
                  "internalType": "uint256",
                  "name": "Y",
                  "type": "uint256"
                }
              ],
              "internalType": "struct Pairing.G1Point",
              "name": "alfa1",
              "type": "tuple"
            },
            {
              "components": [
                {
                  "internalType": "uint256[2]",
                  "name": "X",
                  "type": "uint256[2]"
                },
                {
                  "internalType": "uint256[2]",
                  "name": "Y",
                  "type": "uint256[2]"
                }
              ],
              "internalType": "struct Pairing.G2Point",
              "name": "beta2",
              "type": "tuple"
            },
            {
              "components": [
                {
                  "internalType": "uint256[2]",
                  "name": "X",
                  "type": "uint256[2]"
                },
                {
                  "internalType": "uint256[2]",
                  "name": "Y",
                  "type": "uint256[2]"
                }
              ],
              "internalType": "struct Pairing.G2Point",
              "name": "gamma2",
              "type": "tuple"
            },
            {
              "components": [
                {
                  "internalType": "uint256[2]",
                  "name": "X",
                  "type": "uint256[2]"
                },
                {
                  "internalType": "uint256[2]",
                  "name": "Y",
                  "type": "uint256[2]"
                }
              ],
              "internalType": "struct Pairing.G2Point",
              "name": "delta2",
              "type": "tuple"
            },
            {
              "components": [
                {
                  "internalType": "uint256",
                  "name": "X",
                  "type": "uint256"
                },
                {
                  "internalType": "uint256",
                  "name": "Y",
                  "type": "uint256"
                }
              ],
              "internalType": "struct Pairing.G1Point[]",
              "name": "IC",
              "type": "tuple[]"
            }
          ],
          "internalType": "struct Verifier.VerifyingKey",
          "name": "vk",
          "type": "tuple"
        }
      ],
      "name": "verifyProof",
      "outputs": [
        {
          "internalType": "bool",
          "name": "r",
          "type": "bool"
        }
      ],
      "stateMutability": "view",
      "type": "function",
      "constant": true
    },
    {
      "inputs": [
        {
          "internalType": "uint256[2]",
          "name": "a",
          "type": "uint256[2]"
        },
        {
          "internalType": "uint256[2][2]",
          "name": "b",
          "type": "uint256[2][2]"
        },
        {
          "internalType": "uint256[2]",
          "name": "c",
          "type": "uint256[2]"
        },
        {
          "internalType": "uint256[3]",
          "name": "input",
          "type": "uint256[3]"
        }
      ],
      "name": "verifyInitProof",
      "outputs": [
        {
          "internalType": "bool",
          "name": "",
          "type": "bool"
        }
      ],
      "stateMutability": "view",
      "type": "function",
      "constant": true
    },
    {
      "inputs": [
        {
          "internalType": "uint256[2]",
          "name": "a",
          "type": "uint256[2]"
        },
        {
          "internalType": "uint256[2][2]",
          "name": "b",
          "type": "uint256[2][2]"
        },
        {
          "internalType": "uint256[2]",
          "name": "c",
          "type": "uint256[2]"
        },
        {
          "internalType": "uint256[4]",
          "name": "input",
          "type": "uint256[4]"
        }
      ],
      "name": "verifyMoveProof",
      "outputs": [
        {
          "internalType": "bool",
          "name": "",
          "type": "bool"
        }
      ],
      "stateMutability": "view",
      "type": "function",
      "constant": true
    }
  ],
  "bytecode": "0x608060405234801561001057600080fd5b506126cd806100206000396000f3fe608060405234801561001057600080fd5b50600436106100415760003560e01c80636996ee66146100465780638eff895414610076578063d5dfc134146100a6575b600080fd5b610060600480360381019061005b9190611cc9565b6100d6565b60405161006d9190611d4d565b60405180910390f35b610090600480360381019061008b9190611e19565b61019b565b60405161009d9190611d4d565b60405180910390f35b6100c060048036038101906100bb919061215d565b610260565b6040516100cd9190611d4d565b60405180910390f35b600080600467ffffffffffffffff8111156100f4576100f3611a00565b5b6040519080825280602002602001820160405280156101225781602001602082028036833780820191505090505b50905060005b600481101561017b5783816004811061014457610143612213565b5b602002015182828151811061015c5761015b612213565b5b602002602001018181525050808061017390612271565b915050610128565b506101908686868461018b610435565b610260565b915050949350505050565b600080600367ffffffffffffffff8111156101b9576101b8611a00565b5b6040519080825280602002602001820160405280156101e75781602001602082028036833780820191505090505b50905060005b60038110156102405783816003811061020957610208612213565b5b602002015182828151811061022157610220612213565b5b602002602001018181525050808061023890612271565b9150506101ed565b50610255868686846102506109a1565b610260565b915050949350505050565b600061026a611894565b60405180604001604052808860006002811061028957610288612213565b5b60200201518152602001886001600281106102a7576102a6612213565b5b6020020151815250816000018190525060405180604001604052806040518060400160405280896000600281106102e1576102e0612213565b5b60200201516000600281106102f9576102f8612213565b5b602002015181526020018960006002811061031757610316612213565b5b602002015160016002811061032f5761032e612213565b5b6020020151815250815260200160405180604001604052808960016002811061035b5761035a612213565b5b602002015160006002811061037357610372612213565b5b602002015181526020018960016002811061039157610390612213565b5b60200201516001600281106103a9576103a8612213565b5b602002015181525081525081602001819052506040518060400160405280866000600281106103db576103da612213565b5b60200201518152602001866001600281106103f9576103f8612213565b5b602002015181525081604001819052506000610416858386610e95565b141561042657600191505061042c565b60009150505b95945050505050565b61043d6118c7565b60405180604001604052807f1ad2398a89cef36a42daa7c1ab72f171e4b9e3064ec50e75719fd510efc2e1d181526020017f27464882363a4f2b330b977022230fc4059ceca868bf27e218a150aef126f27c8152508160000181905250604051806040016040528060405180604001604052807f0c9f50c97fbef51f4c3a987061ffb74d8d897f27db3462532cb70cc89aeaffdb81526020017f23affd169c4d39e4734c203180009465d547dc6a8ca95c491926d49a70a2aa96815250815260200160405180604001604052807f134bb890a93404fbb520acd10db72e539ac70d69abe4a8f9ae6b34aa80e5453481526020017f0251315d191b7237a45659fe482fed8a0d3cb495ab0bf551ce33a733ff4087ec8152508152508160200181905250604051806040016040528060405180604001604052807f198e9393920d483a7260bfb731fb5d25f1aa493335a9e71297e485b7aef312c281526020017f1800deef121f1e76426a00665e5c4479674322d4f75edadd46debd5cd992f6ed815250815260200160405180604001604052807f090689d0585ff075ec9e99ad690c3395bc4b313370b38ef355acdadcd122975b81526020017f12c85ea5db8c6deb4aab71808dcb408fe3d1e7690c43d37b4ce6cc0166fa7daa8152508152508160400181905250604051806040016040528060405180604001604052807f1a37e2a3f53cd4e9e4495ba9970839813a8efcbca2f9ac29da9fb0d6e22eac5c81526020017f2a586b7c0d6d3bf6042059e73d066e7f41cb217472a5a9537b9b8c28af1680d1815250815260200160405180604001604052807f02fdc71b24f47125e23ada3d06ac8d8917bfbfe0a3ea333c263e54f9054e28b681526020017f10f9be79960be6ea822b023d5392e946ac047999647045ccbd5d23187407d5c18152508152508160600181905250600567ffffffffffffffff81111561070457610703611a00565b5b60405190808252806020026020018201604052801561073d57816020015b61072a61190e565b8152602001906001900390816107225790505b50816080018190525060405180604001604052807f080f45056b69f9506b2595f93da1f3f1bd2cbc0c47c77c7a64a0756ff0e8ab3281526020017f22c226cc2be60be4f44a02f220e9038cf7c3f16a12124192012d4ba8e50f7a2781525081608001516000815181106107b3576107b2612213565b5b602002602001018190525060405180604001604052807f2f8879b7e7db6fdd651532f39b46ca5c1e45cf05b92f5f8c9595f53e930066ed81526020017f0b918cf92fb7043c3679f6a516152bc383fdb25a94a21182616bb5a9369bb376815250816080015160018151811061082b5761082a612213565b5b602002602001018190525060405180604001604052807f09da6b9e3af1d41d981750165606b567cd673cff35d36028a9d431863cd82c5281526020017f0892f363779fb6eb2859cf11803dcac6b2982f317b06dbfa4fc08669fc0df49e81525081608001516002815181106108a3576108a2612213565b5b602002602001018190525060405180604001604052807f03939374d698ac82bc6d489da157da8263b409507488d371ffd66c45012107e681526020017f0b5f8d99841c142e0c9d2d23bb6a6da42e170c2c6463e1ab1b29fc8534519360815250816080015160038151811061091b5761091a612213565b5b602002602001018190525060405180604001604052807f1312b673b30f0c3200458f2b3938c32cd4703ce1a3288fc2fcde1234f066f0c781526020017f1a4eadc95a5ac4ddcdb18a2e24c644654a1980c2d7d33cbb7825fd147a5e1fdf815250816080015160048151811061099357610992612213565b5b602002602001018190525090565b6109a96118c7565b60405180604001604052807f29db2d77cee0c823c0c4c11c5352db43df9036b3efe73d2e2e674965809962fd81526020017f12fe1582469c0a50c0b83c8f1c76db7962b19bbd9bdbbb3d0d26b298de7e9d1b8152508160000181905250604051806040016040528060405180604001604052807f26763329952e6f83844ed6983fbfade6d3bafb1161a07f718a2209713f7ab10c81526020017f090e6b4c4664650ce7342885c361d6604a461cfa826f5ca52713ad471f1dfbfc815250815260200160405180604001604052807f1e15f0e8080956be758c84553baa8acb71a35d65f787ecc2c3d3d19f1f1d6efa81526020017f1bf2dc4e908e647d58517f3c818f1003d46383e0df8c2ba8bacebe057ba3575c8152508152508160200181905250604051806040016040528060405180604001604052807f198e9393920d483a7260bfb731fb5d25f1aa493335a9e71297e485b7aef312c281526020017f1800deef121f1e76426a00665e5c4479674322d4f75edadd46debd5cd992f6ed815250815260200160405180604001604052807f090689d0585ff075ec9e99ad690c3395bc4b313370b38ef355acdadcd122975b81526020017f12c85ea5db8c6deb4aab71808dcb408fe3d1e7690c43d37b4ce6cc0166fa7daa8152508152508160400181905250604051806040016040528060405180604001604052807f16f9b9effce1e235f81f3f3cf19fea81eb75e8c164084c4b30333650b7989d2c81526020017f1f92bdeba258b6490804660aba30ef4c33e68df9d5e630cd3f672bc098cf7da7815250815260200160405180604001604052807f0a45007f86ed9fd87664420631a69ac05635657059e9b8c9c6c4052bf53c49e481526020017f28e4b072b82df6f65db91ca61d451194addad460cb3cee3c1730ec705a0a97088152508152508160600181905250600467ffffffffffffffff811115610c7057610c6f611a00565b5b604051908082528060200260200182016040528015610ca957816020015b610c9661190e565b815260200190600190039081610c8e5790505b50816080018190525060405180604001604052807f01fe70dd29a0bb2a113db6a4bc09c9565e626b9a9dc60bff2d74bed92cee4b4481526020017f1e5bf293e3956b04fdec58000c2d2e54f11380ee283e439b2108cf9217392b018152508160800151600081518110610d1f57610d1e612213565b5b602002602001018190525060405180604001604052807f1f70f1a20d87f37178a152b1f55c0fdfb575a493b097abac97395572c1775f6881526020017f077eb5c0d97a0b76f441e322de122338177907c749c36a3f69f946e7d83dc4e58152508160800151600181518110610d9757610d96612213565b5b602002602001018190525060405180604001604052807f06378a4e1fcbf25666297233b38629adfe30c5868ad1bc72f4c1fce3399e376381526020017f10da7f3c92d1a8122d64879aafd5b21ec4372feee61df14f4a981358f37252038152508160800151600281518110610e0f57610e0e612213565b5b602002602001018190525060405180604001604052807f26150a4c67d1650e254e79eded3c452e54deaecad8b2259e131e119821806c6681526020017f035b64b95573b66bfaf30a7bd43dbbc5eb09893659c7e979e95cf1c9a00110518152508160800151600381518110610e8757610e86612213565b5b602002602001018190525090565b6000807f30644e72e131a029b85045b68181585d2833e84879b9709143e1f593f0000001905082608001515160018651610ecf91906122ba565b14610f0f576040517f08c379a0000000000000000000000000000000000000000000000000000000008152600401610f069061236d565b60405180910390fd5b60006040518060400160405280600081526020016000815250905060005b8651811015610ffe5782878281518110610f4a57610f49612213565b5b602002602001015110610f92576040517f08c379a0000000000000000000000000000000000000000000000000000000008152600401610f89906123d9565b60405180910390fd5b610fe982610fe48760800151600185610fab91906122ba565b81518110610fbc57610fbb612213565b5b60200260200101518a8581518110610fd757610fd6612213565b5b602002602001015161107b565b611158565b91508080610ff690612271565b915050610f2d565b5061102881856080015160008151811061101b5761101a612213565b5b6020026020010151611158565b905061105e61103a866000015161125b565b8660200151866000015187602001518589604001518b604001518b60600151611300565b61106d57600192505050611074565b6000925050505b9392505050565b61108361190e565b61108b611928565b8360000151816000600381106110a4576110a3612213565b5b6020020181815250508360200151816001600381106110c6576110c5612213565b5b60200201818152505082816002600381106110e4576110e3612213565b5b602002018181525050600060608360808460076107d05a03fa9050806000811461110d5761110f565bfe5b5080611150576040517f08c379a000000000000000000000000000000000000000000000000000000000815260040161114790612445565b60405180910390fd5b505092915050565b61116061190e565b61116861194a565b83600001518160006004811061118157611180612213565b5b6020020181815250508360200151816001600481106111a3576111a2612213565b5b6020020181815250508260000151816002600481106111c5576111c4612213565b5b6020020181815250508260200151816003600481106111e7576111e6612213565b5b602002018181525050600060608360c08460066107d05a03fa9050806000811461121057611212565bfe5b5080611253576040517f08c379a000000000000000000000000000000000000000000000000000000000815260040161124a906124b1565b60405180910390fd5b505092915050565b61126361190e565b60007f30644e72e131a029b85045b68181585d97816a916871ca8d3c208c16d87cfd479050600083600001511480156112a0575060008360200151145b156112c45760405180604001604052806000815260200160008152509150506112fb565b6040518060400160405280846000015181526020018285602001516112e99190612500565b836112f49190612531565b8152509150505b919050565b600080600467ffffffffffffffff81111561131e5761131d611a00565b5b60405190808252806020026020018201604052801561135757816020015b61134461190e565b81526020019060019003908161133c5790505b5090506000600467ffffffffffffffff81111561137757611376611a00565b5b6040519080825280602002602001820160405280156113b057816020015b61139d61196c565b8152602001906001900390816113955790505b5090508a826000815181106113c8576113c7612213565b5b602002602001018190525088826001815181106113e8576113e7612213565b5b6020026020010181905250868260028151811061140857611407612213565b5b6020026020010181905250848260038151811061142857611427612213565b5b6020026020010181905250898160008151811061144857611447612213565b5b6020026020010181905250878160018151811061146857611467612213565b5b6020026020010181905250858160028151811061148857611487612213565b5b602002602001018190525083816003815181106114a8576114a7612213565b5b60200260200101819052506114bd82826114cd565b9250505098975050505050505050565b60008151835114611513576040517f08c379a000000000000000000000000000000000000000000000000000000000815260040161150a906125b1565b60405180910390fd5b600083519050600060068261152891906125d1565b905060008167ffffffffffffffff81111561154657611545611a00565b5b6040519080825280602002602001820160405280156115745781602001602082028036833780820191505090505b50905060005b838110156117f95786818151811061159557611594612213565b5b6020026020010151600001518260006006846115b191906125d1565b6115bb91906122ba565b815181106115cc576115cb612213565b5b6020026020010181815250508681815181106115eb576115ea612213565b5b60200260200101516020015182600160068461160791906125d1565b61161191906122ba565b8151811061162257611621612213565b5b60200260200101818152505085818151811061164157611640612213565b5b6020026020010151600001516000600281106116605761165f612213565b5b602002015182600260068461167591906125d1565b61167f91906122ba565b815181106116905761168f612213565b5b6020026020010181815250508581815181106116af576116ae612213565b5b6020026020010151600001516001600281106116ce576116cd612213565b5b60200201518260036006846116e391906125d1565b6116ed91906122ba565b815181106116fe576116fd612213565b5b60200260200101818152505085818151811061171d5761171c612213565b5b60200260200101516020015160006002811061173c5761173b612213565b5b602002015182600460068461175191906125d1565b61175b91906122ba565b8151811061176c5761176b612213565b5b60200260200101818152505085818151811061178b5761178a612213565b5b6020026020010151602001516001600281106117aa576117a9612213565b5b60200201518260056006846117bf91906125d1565b6117c991906122ba565b815181106117da576117d9612213565b5b60200260200101818152505080806117f190612271565b91505061157a565b50611802611992565b6000602082602086026020860160086107d05a03fa9050806000811461182757611829565bfe5b508061186a576040517f08c379a000000000000000000000000000000000000000000000000000000000815260040161186190612677565b60405180910390fd5b6000826000600181106118805761187f612213565b5b602002015114159550505050505092915050565b60405180606001604052806118a761190e565b81526020016118b461196c565b81526020016118c161190e565b81525090565b6040518060a001604052806118da61190e565b81526020016118e761196c565b81526020016118f461196c565b815260200161190161196c565b8152602001606081525090565b604051806040016040528060008152602001600081525090565b6040518060600160405280600390602082028036833780820191505090505090565b6040518060800160405280600490602082028036833780820191505090505090565b604051806040016040528061197f6119b4565b815260200161198c6119b4565b81525090565b6040518060200160405280600190602082028036833780820191505090505090565b6040518060400160405280600290602082028036833780820191505090505090565b6000604051905090565b600080fd5b600080fd5b600080fd5b6000601f19601f8301169050919050565b7f4e487b7100000000000000000000000000000000000000000000000000000000600052604160045260246000fd5b611a38826119ef565b810181811067ffffffffffffffff82111715611a5757611a56611a00565b5b80604052505050565b6000611a6a6119d6565b9050611a768282611a2f565b919050565b600067ffffffffffffffff821115611a9657611a95611a00565b5b602082029050919050565b600080fd5b6000819050919050565b611ab981611aa6565b8114611ac457600080fd5b50565b600081359050611ad681611ab0565b92915050565b6000611aef611aea84611a7b565b611a60565b90508060208402830185811115611b0957611b08611aa1565b5b835b81811015611b325780611b1e8882611ac7565b845260208401935050602081019050611b0b565b5050509392505050565b600082601f830112611b5157611b506119ea565b5b6002611b5e848285611adc565b91505092915050565b600067ffffffffffffffff821115611b8257611b81611a00565b5b602082029050919050565b6000611ba0611b9b84611b67565b611a60565b90508060408402830185811115611bba57611bb9611aa1565b5b835b81811015611be35780611bcf8882611b3c565b845260208401935050604081019050611bbc565b5050509392505050565b600082601f830112611c0257611c016119ea565b5b6002611c0f848285611b8d565b91505092915050565b600067ffffffffffffffff821115611c3357611c32611a00565b5b602082029050919050565b6000611c51611c4c84611c18565b611a60565b90508060208402830185811115611c6b57611c6a611aa1565b5b835b81811015611c945780611c808882611ac7565b845260208401935050602081019050611c6d565b5050509392505050565b600082601f830112611cb357611cb26119ea565b5b6004611cc0848285611c3e565b91505092915050565b6000806000806101808587031215611ce457611ce36119e0565b5b6000611cf287828801611b3c565b9450506040611d0387828801611bed565b93505060c0611d1487828801611b3c565b925050610100611d2687828801611c9e565b91505092959194509250565b60008115159050919050565b611d4781611d32565b82525050565b6000602082019050611d626000830184611d3e565b92915050565b600067ffffffffffffffff821115611d8357611d82611a00565b5b602082029050919050565b6000611da1611d9c84611d68565b611a60565b90508060208402830185811115611dbb57611dba611aa1565b5b835b81811015611de45780611dd08882611ac7565b845260208401935050602081019050611dbd565b5050509392505050565b600082601f830112611e0357611e026119ea565b5b6003611e10848285611d8e565b91505092915050565b6000806000806101608587031215611e3457611e336119e0565b5b6000611e4287828801611b3c565b9450506040611e5387828801611bed565b93505060c0611e6487828801611b3c565b925050610100611e7687828801611dee565b91505092959194509250565b600067ffffffffffffffff821115611e9d57611e9c611a00565b5b602082029050602081019050919050565b6000611ec1611ebc84611e82565b611a60565b90508083825260208201905060208402830185811115611ee457611ee3611aa1565b5b835b81811015611f0d5780611ef98882611ac7565b845260208401935050602081019050611ee6565b5050509392505050565b600082601f830112611f2c57611f2b6119ea565b5b8135611f3c848260208601611eae565b91505092915050565b600080fd5b600080fd5b600060408284031215611f6557611f64611f45565b5b611f6f6040611a60565b90506000611f7f84828501611ac7565b6000830152506020611f9384828501611ac7565b60208301525092915050565b600060808284031215611fb557611fb4611f45565b5b611fbf6040611a60565b90506000611fcf84828501611b3c565b6000830152506040611fe384828501611b3c565b60208301525092915050565b600067ffffffffffffffff82111561200a57612009611a00565b5b602082029050602081019050919050565b600061202e61202984611fef565b611a60565b9050808382526020820190506040840283018581111561205157612050611aa1565b5b835b8181101561207a57806120668882611f4f565b845260208401935050604081019050612053565b5050509392505050565b600082601f830112612099576120986119ea565b5b81356120a984826020860161201b565b91505092915050565b60006101e082840312156120c9576120c8611f45565b5b6120d360a0611a60565b905060006120e384828501611f4f565b60008301525060406120f784828501611f9f565b60208301525060c061210b84828501611f9f565b60408301525061014061212084828501611f9f565b6060830152506101c082013567ffffffffffffffff81111561214557612144611f4a565b5b61215184828501612084565b60808301525092915050565b6000806000806000610140868803121561217a576121796119e0565b5b600061218888828901611b3c565b955050604061219988828901611bed565b94505060c06121aa88828901611b3c565b93505061010086013567ffffffffffffffff8111156121cc576121cb6119e5565b5b6121d888828901611f17565b92505061012086013567ffffffffffffffff8111156121fa576121f96119e5565b5b612206888289016120b2565b9150509295509295909350565b7f4e487b7100000000000000000000000000000000000000000000000000000000600052603260045260246000fd5b7f4e487b7100000000000000000000000000000000000000000000000000000000600052601160045260246000fd5b600061227c82611aa6565b91507fffffffffffffffffffffffffffffffffffffffffffffffffffffffffffffffff8214156122af576122ae612242565b5b600182019050919050565b60006122c582611aa6565b91506122d083611aa6565b9250827fffffffffffffffffffffffffffffffffffffffffffffffffffffffffffffffff0382111561230557612304612242565b5b828201905092915050565b600082825260208201905092915050565b7f76657269666965722d6261642d696e7075740000000000000000000000000000600082015250565b6000612357601283612310565b915061236282612321565b602082019050919050565b600060208201905081810360008301526123868161234a565b9050919050565b7f76657269666965722d6774652d736e61726b2d7363616c61722d6669656c6400600082015250565b60006123c3601f83612310565b91506123ce8261238d565b602082019050919050565b600060208201905081810360008301526123f2816123b6565b9050919050565b7f70616972696e672d6d756c2d6661696c65640000000000000000000000000000600082015250565b600061242f601283612310565b915061243a826123f9565b602082019050919050565b6000602082019050818103600083015261245e81612422565b9050919050565b7f70616972696e672d6164642d6661696c65640000000000000000000000000000600082015250565b600061249b601283612310565b91506124a682612465565b602082019050919050565b600060208201905081810360008301526124ca8161248e565b9050919050565b7f4e487b7100000000000000000000000000000000000000000000000000000000600052601260045260246000fd5b600061250b82611aa6565b915061251683611aa6565b925082612526576125256124d1565b5b828206905092915050565b600061253c82611aa6565b915061254783611aa6565b92508282101561255a57612559612242565b5b828203905092915050565b7f70616972696e672d6c656e677468732d6661696c656400000000000000000000600082015250565b600061259b601683612310565b91506125a682612565565b602082019050919050565b600060208201905081810360008301526125ca8161258e565b9050919050565b60006125dc82611aa6565b91506125e783611aa6565b9250817fffffffffffffffffffffffffffffffffffffffffffffffffffffffffffffffff04831182151516156126205761261f612242565b5b828202905092915050565b7f70616972696e672d6f70636f64652d6661696c65640000000000000000000000600082015250565b6000612661601583612310565b915061266c8261262b565b602082019050919050565b6000602082019050818103600083015261269081612654565b905091905056fea26469706673582212204fc2cadcde1bfa7fdbda63c766226f2cbf4964ea8968f900a7104bbcce426ae564736f6c634300080b0033",
  "immutableReferences": {},
  "source": "//\n// Copyright 2017 Christian Reitwiessner\n// Permission is hereby granted, free of charge, to any person obtaining a copy of this software and associated documentation files (the \"Software\"), to deal in the Software without restriction, including without limitation the rights to use, copy, modify, merge, publish, distribute, sublicense, and/or sell copies of the Software, and to permit persons to whom the Software is furnished to do so, subject to the following conditions:\n// The above copyright notice and this permission notice shall be included in all copies or substantial portions of the Software.\n// THE SOFTWARE IS PROVIDED \"AS IS\", WITHOUT WARRANTY OF ANY KIND, EXPRESS OR IMPLIED, INCLUDING BUT NOT LIMITED TO THE WARRANTIES OF MERCHANTABILITY, FITNESS FOR A PARTICULAR PURPOSE AND NONINFRINGEMENT. IN NO EVENT SHALL THE AUTHORS OR COPYRIGHT HOLDERS BE LIABLE FOR ANY CLAIM, DAMAGES OR OTHER LIABILITY, WHETHER IN AN ACTION OF CONTRACT, TORT OR OTHERWISE, ARISING FROM, OUT OF OR IN CONNECTION WITH THE SOFTWARE OR THE USE OR OTHER DEALINGS IN THE SOFTWARE.\n//\n// 2019 OKIMS\n//      ported to solidity 0.6\n//      fixed linter warnings\n//      added requiere error messages\n//\n//\n// SPDX-License-Identifier: GPL-3.0\npragma solidity 0.8.11;\nlibrary Pairing {\n    struct G1Point {\n        uint X;\n        uint Y;\n    }\n    // Encoding of field elements is: X[0] * z + X[1]\n    struct G2Point {\n        uint[2] X;\n        uint[2] Y;\n    }\n    /// @return the generator of G1\n    function P1() internal pure returns (G1Point memory) {\n        return G1Point(1, 2);\n    }\n    /// @return the generator of G2\n    function P2() internal pure returns (G2Point memory) {\n        // Original code point\n        return G2Point(\n            [11559732032986387107991004021392285783925812861821192530917403151452391805634,\n             10857046999023057135944570762232829481370756359578518086990519993285655852781],\n            [4082367875863433681332203403145435568316851327593401208105741076214120093531,\n             8495653923123431417604973247489272438418190587263600148770280649306958101930]\n        );\n\n/*\n        // Changed by Jordi point\n        return G2Point(\n            [10857046999023057135944570762232829481370756359578518086990519993285655852781,\n             11559732032986387107991004021392285783925812861821192530917403151452391805634],\n            [8495653923123431417604973247489272438418190587263600148770280649306958101930,\n             4082367875863433681332203403145435568316851327593401208105741076214120093531]\n        );\n*/\n    }\n    /// @return r the negation of p, i.e. p.addition(p.negate()) should be zero.\n    function negate(G1Point memory p) internal pure returns (G1Point memory r) {\n        // The prime q in the base field F_q for G1\n        uint q = 21888242871839275222246405745257275088696311157297823662689037894645226208583;\n        if (p.X == 0 && p.Y == 0)\n            return G1Point(0, 0);\n        return G1Point(p.X, q - (p.Y % q));\n    }\n    /// @return r the sum of two points of G1\n    function addition(G1Point memory p1, G1Point memory p2) internal view returns (G1Point memory r) {\n        uint[4] memory input;\n        input[0] = p1.X;\n        input[1] = p1.Y;\n        input[2] = p2.X;\n        input[3] = p2.Y;\n        bool success;\n        // solium-disable-next-line security/no-inline-assembly\n        assembly {\n            success := staticcall(sub(gas(), 2000), 6, input, 0xc0, r, 0x60)\n            // Use \"invalid\" to make gas estimation work\n            switch success case 0 { invalid() }\n        }\n        require(success,\"pairing-add-failed\");\n    }\n    /// @return r the product of a point on G1 and a scalar, i.e.\n    /// p == p.scalar_mul(1) and p.addition(p) == p.scalar_mul(2) for all points p.\n    function scalar_mul(G1Point memory p, uint s) internal view returns (G1Point memory r) {\n        uint[3] memory input;\n        input[0] = p.X;\n        input[1] = p.Y;\n        input[2] = s;\n        bool success;\n        // solium-disable-next-line security/no-inline-assembly\n        assembly {\n            success := staticcall(sub(gas(), 2000), 7, input, 0x80, r, 0x60)\n            // Use \"invalid\" to make gas estimation work\n            switch success case 0 { invalid() }\n        }\n        require (success,\"pairing-mul-failed\");\n    }\n    /// @return the result of computing the pairing check\n    /// e(p1[0], p2[0]) *  .... * e(p1[n], p2[n]) == 1\n    /// For example pairing([P1(), P1().negate()], [P2(), P2()]) should\n    /// return true.\n    function pairing(G1Point[] memory p1, G2Point[] memory p2) internal view returns (bool) {\n        require(p1.length == p2.length,\"pairing-lengths-failed\");\n        uint elements = p1.length;\n        uint inputSize = elements * 6;\n        uint[] memory input = new uint[](inputSize);\n        for (uint i = 0; i < elements; i++)\n        {\n            input[i * 6 + 0] = p1[i].X;\n            input[i * 6 + 1] = p1[i].Y;\n            input[i * 6 + 2] = p2[i].X[0];\n            input[i * 6 + 3] = p2[i].X[1];\n            input[i * 6 + 4] = p2[i].Y[0];\n            input[i * 6 + 5] = p2[i].Y[1];\n        }\n        uint[1] memory out;\n        bool success;\n        // solium-disable-next-line security/no-inline-assembly\n        assembly {\n            success := staticcall(sub(gas(), 2000), 8, add(input, 0x20), mul(inputSize, 0x20), out, 0x20)\n            // Use \"invalid\" to make gas estimation work\n            switch success case 0 { invalid() }\n        }\n        require(success,\"pairing-opcode-failed\");\n        return out[0] != 0;\n    }\n    /// Convenience method for a pairing check for two pairs.\n    function pairingProd2(G1Point memory a1, G2Point memory a2, G1Point memory b1, G2Point memory b2) internal view returns (bool) {\n        G1Point[] memory p1 = new G1Point[](2);\n        G2Point[] memory p2 = new G2Point[](2);\n        p1[0] = a1;\n        p1[1] = b1;\n        p2[0] = a2;\n        p2[1] = b2;\n        return pairing(p1, p2);\n    }\n    /// Convenience method for a pairing check for three pairs.\n    function pairingProd3(\n            G1Point memory a1, G2Point memory a2,\n            G1Point memory b1, G2Point memory b2,\n            G1Point memory c1, G2Point memory c2\n    ) internal view returns (bool) {\n        G1Point[] memory p1 = new G1Point[](3);\n        G2Point[] memory p2 = new G2Point[](3);\n        p1[0] = a1;\n        p1[1] = b1;\n        p1[2] = c1;\n        p2[0] = a2;\n        p2[1] = b2;\n        p2[2] = c2;\n        return pairing(p1, p2);\n    }\n    /// Convenience method for a pairing check for four pairs.\n    function pairingProd4(\n            G1Point memory a1, G2Point memory a2,\n            G1Point memory b1, G2Point memory b2,\n            G1Point memory c1, G2Point memory c2,\n            G1Point memory d1, G2Point memory d2\n    ) internal view returns (bool) {\n        G1Point[] memory p1 = new G1Point[](4);\n        G2Point[] memory p2 = new G2Point[](4);\n        p1[0] = a1;\n        p1[1] = b1;\n        p1[2] = c1;\n        p1[3] = d1;\n        p2[0] = a2;\n        p2[1] = b2;\n        p2[2] = c2;\n        p2[3] = d2;\n        return pairing(p1, p2);\n    }\n}\ncontract Verifier {\n    using Pairing for *;\n    struct VerifyingKey {\n        Pairing.G1Point alfa1;\n        Pairing.G2Point beta2;\n        Pairing.G2Point gamma2;\n        Pairing.G2Point delta2;\n        Pairing.G1Point[] IC;\n    }\n    struct Proof {\n        Pairing.G1Point A;\n        Pairing.G2Point B;\n        Pairing.G1Point C;\n    }\n    function initVerifyingKey() internal pure returns (VerifyingKey memory vk) {\n        vk.alfa1 = Pairing.G1Point(\n            18932080107706449008748455007755951619983077758477895156552506212556054553341,\n            8590558877854905612665286068615015400648830034990240187781955342155399470363\n        );\n\n        vk.beta2 = Pairing.G2Point(\n            [17396729309940105737698174504750071791074017422595924212771772845984107376908,\n             4096292039384508582216787013678688886653130184907436227016333539970784295932],\n            [13608151920535534347184247461302018806962215251964541555728437970699418431226,\n             12641544403720242348286890056976850291656035510430035681014895286692683667292]\n        );\n        vk.gamma2 = Pairing.G2Point(\n            [11559732032986387107991004021392285783925812861821192530917403151452391805634,\n             10857046999023057135944570762232829481370756359578518086990519993285655852781],\n            [4082367875863433681332203403145435568316851327593401208105741076214120093531,\n             8495653923123431417604973247489272438418190587263600148770280649306958101930]\n        );\n        vk.delta2 = Pairing.G2Point(\n            [10392110881094708584177017528597356583540231735033213882539816523661456219436,\n             14280968760282997620364780645583541625065788408069281480902302564507941043623],\n            [4645044371425199221119653931528942712865694674348619981208748342653461744100,\n             18496572874287452802985867447290577085055998041925308676697391716846501795592]\n        );\n        vk.IC = new Pairing.G1Point[](4);\n        \n        vk.IC[0] = Pairing.G1Point( \n            901870961159954893702061014577890556631963528075069135282998017375953898308,\n            13731842750088265240000432047678270758800519723051696461229685913298446920449\n        );                                      \n        \n        vk.IC[1] = Pairing.G1Point( \n            14221252867142360457478725077297194718513166190620714314331811903342621712232,\n            3390067085546443933190002131975388676116384002776019587162033616656397092069\n        );                                      \n        \n        vk.IC[2] = Pairing.G1Point( \n            2812008227282686423271382687736072869269663076483711627518017251446498408291,\n            7623056392298634704883411955271067909394587942995836248775071998257130525187\n        );                                      \n        \n        vk.IC[3] = Pairing.G1Point( \n            17225063111877189482712137671173304723343766327870745585551294129425226951782,\n            1518416799868590806736705269673195716413026357103347221921380665809310912593\n        );                                      \n        \n    }\n\n    function moveVerifyingKey() internal pure returns (VerifyingKey memory vk) {\n        vk.alfa1 = Pairing.G1Point(\n            12131569081295712532094269967709270983105722076998433925818473789326780195281,\n            17764380825522762485262084944482483461655530634191287538462676137536853045884\n        );\n\n        vk.beta2 = Pairing.G2Point(\n            [5709240438409199515924871888909876052004796270823824622025876160575710101467,\n             16141894688155592033193875110967769627134775425417098708018149207598445013654],\n            [8727731474319746596218214367613826241731933100331741541123778298632758183220,\n             1048081004903712677761008537652639385078872099033960290717850001539608905708]\n        );\n        vk.gamma2 = Pairing.G2Point(\n            [11559732032986387107991004021392285783925812861821192530917403151452391805634,\n             10857046999023057135944570762232829481370756359578518086990519993285655852781],\n            [4082367875863433681332203403145435568316851327593401208105741076214120093531,\n             8495653923123431417604973247489272438418190587263600148770280649306958101930]\n        );\n        vk.delta2 = Pairing.G2Point(\n            [11858874866699954814987742434673458306185460970098327956328727579576406813788,\n             19153364013504175594178597785417476995736117284319042884244612861003348476113],\n            [1353012183888835447255755150178930764023996089187174230476686138543057021110,\n             7678265106223256799986362513285629378428230204138929955342235213437365376449]\n        );\n        vk.IC = new Pairing.G1Point[](5);\n        \n        vk.IC[0] = Pairing.G1Point( \n            3645481861247479092118567044003957653017873524312710529956675146583231736626,\n            15721672953211426072068184172472017741447723614467314563537910740393286138407\n        );                                      \n        \n        vk.IC[1] = Pairing.G1Point( \n            21499835153618992778945911702656002699305594927171863916760724252855818544877,\n            5232607121349033146969365673636821209667006064861096065748258743183419880310\n        );                                      \n        \n        vk.IC[2] = Pairing.G1Point( \n            4456731050109360702320934179734055224186333846152816109388568100754408614994,\n            3878142266118630827563626269739681092103011577658342169218679542114140681374\n        );                                      \n        \n        vk.IC[3] = Pairing.G1Point( \n            1617682770938650068156182114789300140102275863057829601701400590492563998694,\n            5144269090589387786926551648367986846429157991607119855020753297414628152160\n        );                                      \n        \n        vk.IC[4] = Pairing.G1Point( \n            8627006607334145349838519182546522683748988625991732985055283139953805422791,\n            11899147564800361395077372837478392500020977692154820468133421658969458221023\n        );                                      \n        \n    }\n\n    function verify(uint[] memory input, Proof memory proof, VerifyingKey memory vk) internal view returns (uint) {\n        uint256 snark_scalar_field = 21888242871839275222246405745257275088548364400416034343698204186575808495617;\n        require(input.length + 1 == vk.IC.length,\"verifier-bad-input\");\n        // Compute the linear combination vk_x\n        Pairing.G1Point memory vk_x = Pairing.G1Point(0, 0);\n        for (uint i = 0; i < input.length; i++) {\n            require(input[i] < snark_scalar_field,\"verifier-gte-snark-scalar-field\");\n            vk_x = Pairing.addition(vk_x, Pairing.scalar_mul(vk.IC[i + 1], input[i]));\n        }\n        vk_x = Pairing.addition(vk_x, vk.IC[0]);\n        if (!Pairing.pairingProd4(\n            Pairing.negate(proof.A), proof.B,\n            vk.alfa1, vk.beta2,\n            vk_x, vk.gamma2,\n            proof.C, vk.delta2\n        )) return 1;\n        return 0;\n    }\n    /// @return r  bool true if proof is valid\n    function verifyProof(\n            uint256[2] memory a,\n            uint256[2][2] memory b,\n            uint256[2] memory c,\n            uint256[] memory input,\n            VerifyingKey memory vk\n        ) public view returns (bool r) {\n        Proof memory proof;\n        proof.A = Pairing.G1Point(a[0], a[1]);\n        proof.B = Pairing.G2Point([b[0][0], b[0][1]], [b[1][0], b[1][1]]);\n        proof.C = Pairing.G1Point(c[0], c[1]);\n        if (verify(input, proof, vk) == 0) {\n            return true;\n        } else {\n            return false;\n        }\n    }\n\n    function verifyInitProof(\n        uint256[2] memory a,\n        uint256[2][2] memory b,\n        uint256[2] memory c,\n        uint256[3] memory input\n    ) public view returns (bool) {\n        uint256[] memory inputValues = new uint256[](input.length);\n        for (uint256 i = 0; i < input.length; i++) {\n            inputValues[i] = input[i];\n        }\n        return verifyProof(a, b, c, inputValues, initVerifyingKey());\n    }\n\n    function verifyMoveProof(\n        uint256[2] memory a,\n        uint256[2][2] memory b,\n        uint256[2] memory c,\n        uint256[4] memory input\n    ) public view returns (bool) {\n        uint256[] memory inputValues = new uint256[](input.length);\n        for (uint256 i = 0; i < input.length; i++) {\n            inputValues[i] = input[i];\n        }\n        return verifyProof(a, b, c, inputValues, moveVerifyingKey());\n    }\n}\n",
  "sourcePath": "/Users/tosinshada/Documents/ZKU/Assignment1/zku-darkforest/eth/contracts/Verifier.sol",
  "compiler": {
    "name": "solc",
    "version": "0.8.11+commit.d7f03943.Emscripten.clang"
  },
  "schemaVersion": "3.4.4",
  "updatedAt": "2022-01-12T21:50:45.708Z",
  "networkType": "ethereum",
  "devdoc": {
    "kind": "dev",
    "methods": {
      "verifyProof(uint256[2],uint256[2][2],uint256[2],uint256[],((uint256,uint256),(uint256[2],uint256[2]),(uint256[2],uint256[2]),(uint256[2],uint256[2]),(uint256,uint256)[]))": {
        "returns": {
          "r": " bool true if proof is valid"
        }
      }
    },
    "version": 1
  },
  "userdoc": {
    "kind": "user",
    "methods": {},
    "version": 1
  }
}